{
  "contractName": "cryptoken",
  "abi": [
    {
      "inputs": [],
      "payable": false,
      "stateMutability": "nonpayable",
      "type": "constructor"
    },
    {
      "constant": true,
      "inputs": [],
      "name": "totalSupply",
      "outputs": [
        {
          "internalType": "uint256",
          "name": "",
          "type": "uint256"
        }
      ],
      "payable": false,
      "stateMutability": "view",
      "type": "function"
    }
  ],
  "bytecode": "0x6080604052348015600f57600080fd5b50620f42406000819055506087806100286000396000f3fe6080604052348015600f57600080fd5b506004361060285760003560e01c806318160ddd14602d575b600080fd5b60336049565b6040518082815260200191505060405180910390f35b6000805490509056fea265627a7a723158209c875a438179677dfdc3731fc36fd8a34bd0e77b58e57e1fe1d91486f7984dd664736f6c63430005100032",
  "source": "// SPDX-License-Identifier: MIT\npragma solidity >=0.4.20;\n\ncontract cryptoken{\n    uint256 _totalSupply;\n\n    //Constructor\n    constructor() public {\n        _totalSupply = 1000000;\n    }\n    function totalSupply() public view returns (uint256) {\n        return _totalSupply;\n    }\n    //Set total number of tokens\n\n    //Read total number of tokens\n}",
  "sourcePath": "/Users/niyant/ming/contracts/cryptoken.sol",
  "compiler": {
    "name": "solc",
    "version": "0.5.16+commit.9c3226ce.Emscripten.clang"
  },
  "schemaVersion": "3.2.0",
  "updatedAt": "2020-06-23T16:51:18.322Z",
  "networkType": "ethereum",
  "devdoc": {
    "methods": {}
  },
  "userdoc": {
    "methods": {}
  }
}